:020000040800F2
:1000000000000524E12B0008752100087721000875
:10001000792100087B2100087D21000800000000F4
:10002000000000000000000000000000D1C7000830
:100030007F2100080000000071C80008D5C8000832
:10004000312C0008312C0008312C0008312C00081C
:10005000312C0008312C0008312C0008312C00080C
:10006000312C0008312C0008312C0008312C0008FC
:10007000312C000881210008312C00089121000852
:10008000A1210008312C0008312C0008B121000802
:10009000C1210008312C0008312C0008312C000847
:1000A000312C0008312C0008312C0008312C0008BC
:1000B000312C0008312C0008D1210008312C000817
:1000C000312C0008312C0008312C0008312C00089C
:1000D000E1210008312C0008F1210008012200086C
:1000E000312C0008312C000800000000312C0008E1
:1000F000312C0008312C0008312C0008312C00086C
:10010000312C0008312C0008312C0008312C00085B
:10011000312C000811220008312C0008312C000875
:100120002122000831220008412200085122000843
:10013000312C0008312C0008312C0008312C00082B
:1001400000000000000000000000000000000000AF
:1001500061220008312C0008312C0008312C0008E5
:10016000312C0008312C0008312C0008312C0008FB
:10017000312C000871220008312C0008000000001A
:10018000312C0008312C0008312C0008312C0008DB
:10019000312C0008312C0008312C0008312C0008CB
:1001A000312C0008312C0008312C00080000000020
:1001B000312C0008312C0008312C0008312C0008AB
:1001C000312C0008312C0008000000000000000065
:1001D0000000000000000000312C000800000000BA
:1001E000000000000000000000000000000000000F
:1001F0000000000000000000312C0008312C000835
:10020000312C0008312C000800000000312C0008BF
:10021000312C0008312C0008312C0008312C00084A
:10022000312C000800000000312C00080000000004
:10023000312C0008312C000800000000312C00088F
:10024000312C0008312C0008312C0008312C00081A
:10025000312C0008312C0008312C0008312C00080A
:10026000312C0008312C0008312C0008312C0008FA
:10027000312C0008312C0008312C0008000000004F
:10028000312C0008312C0008312C0008312C0008DA
:1002900000000000312C0008312C00080000000094
:1002A00000000000312C0008312C0008312C00081F
:1002B00081220008312C0008312C0008912200080E
:0C02C000312C0008A1220008312C00089D
:1003000010B5054C237833B9044B13B10448AFF34F
:1003100000800123237010BDA80F002400000000FE
:10032000F403020808B5034B1BB103490348AFF3BC
:10033000008008BD00000000AC0F0024F403020898
:1003400081F0004102E000BF83F0004330B54FEA86
:1003500041044FEA430594EA050F08BF90EA020FF3
:100360001FBF54EA000C55EA020C7FEA645C7FEA86
:10037000655C00F0E2804FEA5454D4EB5555B8BFA9
:100380006D420CDD2C4480EA020281EA030382EA1A
:10039000000083EA010180EA020281EA0303362DAC
:1003A00088BF30BD11F0004F4FEA01314FF4801C7F
:1003B0004CEA113102D0404261EB410113F0004F91
:1003C0004FEA03334CEA133302D0524263EB430348
:1003D00094EA050F00F0A780A4F10104D5F1200EE6
:1003E0000DDB02FA0EFC22FA05F2801841F1000141
:1003F00003FA0EF2801843FA05F359410EE0A5F115
:1004000020050EF1200E012A03FA0EFC28BF4CF045
:10041000020C43FA05F3C01851EBE37101F00045FB
:1004200007D54FF0000EDCF1000C7EEB00006EEB08
:100430000101B1F5801F1BD3B1F5001F0CD3490892
:100440005FEA30004FEA3C0C04F101044FEA4452E9
:1004500012F5800F80F09A80BCF1004F08BF5FEA70
:10046000500C50F1000041EB045141EA050130BD50
:100470005FEA4C0C404141EB0101013C28BFB1F562
:10048000801FE9D291F0000F04BF01460020B1FAAD
:1004900081F308BF2033A3F10B03B3F120020CDA80
:1004A0000C3208DD02F1140CC2F10C0201FA0CF05E
:1004B00021FA02F10CE002F11402D8BFC2F1200CC3
:1004C00001FA02F120FA0CFCDCBF41EA0C01904079
:1004D000E41AA2BF01EB0451294330BD6FEA0404C2
:1004E0001F3C1CDA0C340EDC04F11404C4F12002AD
:1004F00020FA04F001FA02F340EA030021FA04F3BF
:1005000045EA030130BDC4F10C04C4F1200220FA15
:1005100002F001FA04F340EA0300294630BD21FA53
:1005200004F0294630BD94F0000F83F4801306BF19
:1005300081F480110134013D4EE77FEA645C18BF0D
:100540007FEA655C29D094EA050F08BF90EA020FA4
:1005500005D054EA000C04BF1946104630BD91EA9C
:10056000030F1EBF0021002030BD5FEA545C05D19F
:100570004000494128BF41F0004130BD14F58004DE
:100580003CBF01F5801130BD01F0004545F0FE4152
:1005900041F470014FF0000030BD7FEA645C1ABF87
:1005A000194610467FEA655C1CBF0B46024650EABE
:1005B000013406BF52EA033591EA030F41F40021EA
:1005C00030BD00BF90F0000F04BF0021704730B570
:1005D0004FF4806404F132044FF000054FF0000145
:1005E00050E700BF90F0000F04BF0021704730B506
:1005F0004FF4806404F1320410F0004548BF4042DB
:100600004FF000013EE700BF42004FEAE2014FEA2F
:1006100031014FEA02701FBF12F07F4393F07F4F0A
:1006200081F06051704732F07F4208BF704793F00D
:100630007F4F04BF41F40021704730B54FF4607420
:1006400001F0004521F000411CE700BF50EA010223
:1006500008BF704730B54FF000050AE050EA0102CC
:1006600008BF704730B511F0004502D5404261EB3C
:1006700041014FF4806404F132045FEA915C3FF47D
:10068000D8AE4FF003025FEADC0C18BF03325FEA1A
:10069000DC0C18BF033202EBDC02C2F1200300FACB
:1006A00003FC20FA02F001FA03FE40EA0E0021FAF0
:1006B00002F11444BDE600BF70B54FF0FF0C4CF4DE
:1006C000E06C1CEA11541DBF1CEA135594EA0C0F90
:1006D00095EA0C0F00F0DEF82C4481EA030621EACB
:1006E0004C5123EA4C5350EA013518BF52EA033506
:1006F00041F4801143F4801338D0A0FB02CE4FF0B8
:100700000005E1FB02E506F00042E0FB03E54FF0E7
:100710000006E1FB03569CF0000F18BF4EF0010EDF
:10072000A4F1FF04B6F5007F64F5407404D25FEADB
:100730004E0E6D4146EB060642EAC62141EA55518E
:100740004FEAC52040EA5E504FEACE2EB4F1FD0CD0
:1007500088BFBCF5E06F1ED8BEF1004F08BF5FEA4E
:10076000500E50F1000041EB045170BD06F0004600
:1007700046EA010140EA020081EA0301B4EB5C04AD
:10078000C2BFD4EB0C0541EA045170BD41F48011A5
:100790004FF0000E013C00F3AB8014F1360FDEBFCA
:1007A000002001F0004170BDC4F10004203C35DAA6
:1007B0000C341BDC04F11404C4F1200500FA05F329
:1007C00020FA04F001FA05F240EA020001F00042CA
:1007D00021F0004110EBD37021FA04F642EB060140
:1007E0005EEA430E08BF20EAD37070BDC4F10C046A
:1007F000C4F1200500FA04F320FA05F001FA04F22E
:1008000040EA020001F0004110EBD37041F1000119
:100810005EEA430E08BF20EAD37070BDC4F1200524
:1008200000FA05F24EEA020E20FA04F301FA05F28C
:1008300043EA020321FA04F001F0004121FA04F234
:1008400020EA020000EBD3705EEA430E08BF20EA04
:10085000D37070BD94F0000F0FD101F0004640003E
:1008600041EB010111F4801F08BF013CF7D041EAC0
:10087000060195F0000F18BF704703F000465200C4
:1008800043EB030313F4801F08BF013DF7D043EA95
:100890000603704794EA0C0F0CEA135518BF95EA4B
:1008A0000C0F0CD050EA410618BF52EA4306D1D1D2
:1008B00081EA030101F000414FF0000070BD50EAF1
:1008C000410606BF1046194652EA430619D094EA7B
:1008D0000C0F02D150EA013613D195EA0C0F05D165
:1008E00052EA03361CBF104619460AD181EA0301B9
:1008F00001F0004141F0FE4141F470014FF0000071
:1009000070BD41F0FE4141F4780170BD70B54FF00B
:10091000FF0C4CF4E06C1CEA11541DBF1CEA13558B
:1009200094EA0C0F95EA0C0F00F0A7F8A4EB05046D
:1009300081EA030E52EA03354FEA013100F0888064
:100940004FEA03334FF0805545EA131343EA12632D
:100950004FEA022245EA111545EA10654FEA0026E2
:100960000EF000419D4208BF964244F1FD0404F59B
:10097000407402D25B084FEA3202B61A65EB0305F7
:100980005B084FEA32024FF480104FF4002CB6EBB4
:10099000020E75EB030E22BFB61A754640EA0C0034
:1009A0005B084FEA3202B6EB020E75EB030E22BF74
:1009B000B61A754640EA5C005B084FEA3202B6EBB5
:1009C000020E75EB030E22BFB61A754640EA9C0074
:1009D0005B084FEA3202B6EB020E75EB030E22BF44
:1009E000B61A754640EADC0055EA060E18D04FEA02
:1009F000051545EA16754FEA06164FEAC30343EAA2
:100A000052734FEAC2025FEA1C1CC0D111F4801F6E
:100A10000BD141EA00014FF000004FF0004CB6E767
:100A200011F4801F04BF01430020B4F1FD0C88BF06
:100A3000BCF5E06F3FF6AFAEB5EB030C04BFB6EB11
:100A4000020C5FEA500C50F1000041EB045170BD04
:100A50000EF0004E4EEA113114EB5C04C2BFD4EB31
:100A60000C0541EA045170BD41F480114FF0000EB5
:100A7000013C90E645EA060E8DE60CEA135594EA31
:100A80000C0F08BF95EA0C0F3FF43BAF94EA0C0F34
:100A90000AD150EA01347FF434AF95EA0C0F7FF4A9
:100AA00025AF104619462CE795EA0C0F06D152EAFD
:100AB00003353FF4FDAE1046194622E750EA4106E1
:100AC00018BF52EA43067FF4C5AE50EA41047FF4F2
:100AD0000DAF52EA43057FF4EBAE12E74FEA410255
:100AE000B2F1E04324BFB3F5001CDCF1FE5C0DD98C
:100AF00001F0004C4FEAC0024CEA5070B2F1004FD6
:100B000040EB830008BF20F00100704711F0804FD8
:100B100021D113F13872BCBF01F00040704741F49D
:100B200080114FEA5252C2F11802C2F1200C10FAA1
:100B30000CF320FA02F018BF40F001004FEAC12385
:100B40004FEAD32303FA0CFC40EA0C0023FA02F329
:100B50004FEA4303CCE77FEA625307D150EA0133FF
:100B60001EBF4FF0FE4040F44000704701F00040CF
:100B700040F0FE4040F40000704700BF80F00040AD
:100B800002E000BF81F0004142001FBF5FEA410365
:100B900092EA030F7FEA226C7FEA236C6AD04FEA65
:100BA0001262D2EB1363C1BFD218414048404140AA
:100BB000B8BF5B42192B88BF704710F0004F40F45C
:100BC000000020F07F4018BF404211F0004F41F478
:100BD000000121F07F4118BF494292EA030F3FD044
:100BE000A2F1010241FA03FC10EB0C00C3F1200357
:100BF00001FA03F100F0004302D5494260EB4000E6
:100C0000B0F5000F13D3B0F1807F06D340084FEA50
:100C1000310102F10102FE2A51D2B1F1004F40EB45
:100C2000C25008BF20F0010040EA030070474900AD
:100C300040EB0000013A28BFB0F5000FEDD2B0FA4A
:100C400080FCACF1080CB2EB0C0200FA0CF0AABF6D
:100C500000EBC25052421843BCBFD040184370470B
:100C600092F0000F81F4000106BF80F40000013211
:100C7000013BB5E74FEA41037FEA226C18BF7FEAE8
:100C8000236C21D092EA030F04D092F0000F08BF2A
:100C90000846704790EA010F1CBF0020704712F011
:100CA0007F4F04D1400028BF40F00040704712F150
:100CB00000723CBF00F50000704700F0004343F0B5
:100CC000FE4040F4000070477FEA226216BF0846EB
:100CD0007FEA23630146420206BF5FEA412390EAAE
:100CE000010F40F4800070474FF0000304E000BFA4
:100CF00010F0004348BF40425FEA000C08BF704755
:100D000043F0964301464FF000001CE050EA010218
:100D100008BF70474FF000030AE000BF50EA01022D
:100D200008BF704711F0004302D5404261EB41011A
:100D30005FEA010C02BF84460146002043F0B6433F
:100D400008BFA3F18053A3F50003BCFA8CF2083A64
:100D5000A3EBC25310DB01FA02FC634400FA02FC6D
:100D6000C2F12002BCF1004F20FA02F243EB020074
:100D700008BF20F00100704702F1200201FA02FCD6
:100D8000C2F1200250EA4C0021FA02F243EB0200C9
:100D900008BF20EADC70704753B94AB9002908BF80
:100DA00000281CBF4FF0FF314FF0FF3000F074B946
:100DB000ADF1080C6DE904CE00F006F8DDF804E0B2
:100DC000DDE9022304B070472DE9F047089D044691
:100DD0008E46002B4DD18A42944669D9B2FA82F2EE
:100DE00052B101FA02F3C2F1200120FA01F10CFA2A
:100DF00002FC41EA030E94404FEA1C48210CBEFB62
:100E0000F8F61FFA8CF708FB16E341EA034306FBEA
:100E100007F199420AD91CEB030306F1FF3080F079
:100E20001F81994240F21C81023E63445B1AA4B2C6
:100E3000B3FBF8F008FB103344EA034400FB07F768
:100E4000A7420AD91CEB040400F1FF3380F00A81A9
:100E5000A74240F207816444023840EA0640E41B9E
:100E600000261DB1D4400023C5E900433146BDE84A
:100E7000F0878B4209D9002D00F0EF800026C5E9EC
:100E8000000130463146BDE8F087B3FA83F6002E04
:100E90004AD18B4202D3824200F2F980841A61EB7C
:100EA000030301209E46002DE0D0C5E9004EDDE79A
:100EB00002B9FFDEB2FA82F2002A40F09280A1EB82
:100EC0000C014FEA1C471FFA8CFE0126200CB1FBD7
:100ED000F7F307FB131140EA01410EFB03F08842D0
:100EE00008D91CEB010103F1FF3802D2884200F25D
:100EF000CB804346091AA4B2B1FBF7F007FB1011EF
:100F000044EA01440EFB00FEA64508D91CEB04048C
:100F100000F1FF3102D2A64500F2BB800846A4EBE7
:100F20000E0440EA03409CE7C6F12007B34022FAD2
:100F300007FC4CEA030C20FA07F401FA06F31C4301
:100F4000F9404FEA1C4900FA06F3B1FBF9F8200C0E
:100F50001FFA8CFE09FB181140EA014108FB0EF054
:100F6000884202FA06F20BD91CEB010108F1FF3AA4
:100F700080F08880884240F28580A8F102086144B0
:100F8000091AA4B2B1FBF9F009FB101144EA0141BE
:100F900000FB0EFE8E4508D91CEB010100F1FF3469
:100FA0006CD28E456AD90238614440EA0840A0FB01
:100FB0000294A1EB0E01A142C846A64656D353D0D7
:100FC0005DB1B3EB080261EB0E0101FA07F722FAFB
:100FD00006F3F1401F43C5E9007100263146BDE824
:100FE000F087C2F12003D8400CFA02FC21FA03F387
:100FF000914001434FEA1C471FFA8CFEB3FBF7F008
:1010000007FB10360B0C43EA064300FB0EF69E422C
:1010100004FA02F408D91CEB030300F1FF382FD2C5
:101020009E422DD9023863449B1B89B2B3FBF7F66D
:1010300007FB163341EA034106FB0EF38B4208D946
:101040001CEB010106F1FF3816D28B4214D9023E87
:101050006144C91A46EA004638E72E46284605E7A5
:101060000646E3E61846F8E64B45A9D2B9EB020876
:1010700064EB0C0E0138A3E74646EAE7204694E706
:101080004046D1E7D0467BE7023B614432E7304639
:1010900009E76444023842E7704700BF844641EAEA
:1010A000000313F003036DD1403A41D351F8043BE0
:1010B00040F8043B51F8043B40F8043B51F8043B32
:1010C00040F8043B51F8043B40F8043B51F8043B22
:1010D00040F8043B51F8043B40F8043B51F8043B12
:1010E00040F8043B51F8043B40F8043B51F8043B02
:1010F00040F8043B51F8043B40F8043B51F8043BF2
:1011000040F8043B51F8043B40F8043B51F8043BE1
:1011100040F8043B51F8043B40F8043B51F8043BD1
:1011200040F8043B51F8043B40F8043B403ABDD240
:10113000303211D351F8043B40F8043B51F8043BE2
:1011400040F8043B51F8043B40F8043B51F8043BA1
:1011500040F8043B103AEDD20C3205D351F8043B71
:1011600040F8043B043AF9D2043208D0D2071CBF3D
:1011700011F8013B00F8013B01D30B880380604666
:10118000704700BF082A13D38B078DD010F00303DC
:101190008AD0C3F10403D21ADB071CBF11F8013B4C
:1011A00000F8013B80D331F8023B20F8023B7BE79B
:1011B000043AD9D3013A11F8013B00F8013BF9D2C6
:1011C0000B7803704B7843708B7883706046704760
:1011D000000000000000000000000000000000000F
:1011E00000000000000000000000000000000000FF
:1011F00000000000000000000000000000000000EF
:1012000090F800F06DE9024520F007016FF0000C46
:1012100010F0070491F820F040F049804FF00004EE
:101220006FF00700D1E9002391F840F000F10800C9
:1012300082FA4CF2A4FA8CF283FA4CF3A2FA8CF301
:101240004BBBD1E9022382FA4CF200F10800A4FA68
:101250008CF283FA4CF3A2FA8CF3E3B9D1E90423BC
:1012600082FA4CF200F10800A4FA8CF283FA4CF3F3
:10127000A2FA8CF37BB9D1E9062301F1200182FAAD
:101280004CF200F10800A4FA8CF283FA4CF3A2FAB3
:101290008CF3002BC6D0002A04BF04301A4612BAC1
:1012A000B2FA82F2FDE8024500EBD2007047D1E9C4
:1012B000002304F00305C4F100004FEAC50514F053
:1012C000040F91F840F00CFA05F562EA05021CBF24
:1012D00063EA050362464FF00004A9E7000000003E
:1012E00001F0FF01102A2BDB10F0070F08D010F8D7
:1012F000013B013A8B422DD010F0070F42B3F6D1DB
:10130000F0B441EA012141EA014122F007047FF0F3
:1013100000070023F0E80256083C85EA010586EA4A
:10132000010685FA47F5A3FA87F586FA47F6A5FA86
:1013300087F68EB9EED1F0BC01F0FF0102F0070292
:1013400032B110F8013B013A83EA010313B1F8D13D
:101350000020704701387047002D06BF354603381E
:10136000073815F0010F07D1013015F4807F02BF57
:10137000013015F4C03F0130F0BC0138704700BFA8
:101380004FF0FF3C06E000BF4FF0010C02E000BF51
:101390004FF0010C4DF804CD4FEA410C7FEA6C5C34
:1013A0004FEA430C18BF7FEA6C5C1BD001B050EAD7
:1013B000410C0CBF52EA430C91EA030F02BF90EAC2
:1013C000020F0020704710F1000F91EA030F58BF81
:1013D000994208BF90422CBFD8176FEAE37040F0E3
:1013E000010070474FEA410C7FEA6C5C02D150EA81
:1013F000013C07D14FEA430C7FEA6C5CD6D152EA3C
:10140000033CD3D05DF8040B704700BF8446104600
:1014100062468C461946634600E000BF01B5FFF7FF
:10142000B7FF002848BF10F1000F01BD4DF808EDCF
:10143000FFF7F4FF0CBF012000205DF808FB00BFA0
:101440004DF808EDFFF7EAFF34BF012000205DF8FA
:1014500008FB00BF4DF808EDFFF7E0FF94BF012047
:1014600000205DF808FB00BF4DF808EDFFF7CEFF48
:1014700094BF012000205DF808FB00BF4DF808ED87
:10148000FFF7C4FF34BF012000205DF808FB00BF58
:101490004FEA410C7FEA6C5C02D150EA013C0AD170
:1014A0004FEA430C7FEA6C5C02D152EA033C02D162
:1014B0004FF0000070474FF0010070474FEA4102C3
:1014C00012F5001215D211D56FF47873B3EB625296
:1014D00012D94FEAC12343F0004343EA505311F0BD
:1014E000004F23FA02F018BF404270474FF000004F
:1014F000704750EA013005D111F0004008BF6FF08D
:10150000004070474FF00000704700BF00B583B047
:101510002D4BD3F8D82042F00102C3F8D820D3F8DD
:10152000D82002F001020092009AD3F8D82042F0AD
:101530000202C3F8D820D3F8D83003F00203019395
:10154000019B002205210D2001F0E4FB0D2001F09C
:1015500017FC002205210F2001F0DCFB0F2001F019
:101560000FFC00220521102001F0D4FB102001F017
:1015700007FC00220521382001F0CCFB382001F0C7
:10158000FFFB00220521392001F0C4FB392001F0C6
:10159000F7FB002205213A2001F0BCFB3A2001F0C4
:1015A000EFFB002205213B2001F0B4FB3B2001F0C2
:1015B000E7FB00220521442001F0ACFB442001F0B0
:1015C000DFFB03B05DF804FB0044025810B5164879
:1015D000164B036000238360C360037443740122CD
:1015E0008274032444610A2282611D21C161026266
:1015F00044628262C162026343630E228263C363F8
:101600000422026442648364C264036542658365A4
:10161000C36502664366826603F08EF800B910BDAA
:1016200000F00AFBFBE700BFC80F002400A0004049
:1016300010B51648164B036000238360C360037423
:1016400043748374032444610A2282611D21C161B1
:10165000026244628262C16202634FF45572426365
:101660000E228263C3630364042242648264C26400
:10167000036542658365C36502664366826603F05F
:101680005BF800B910BD00F0D7FAFBE76810002442
:1016900000A4004010B51648164B03600023836079
:1016A000C360037443748374032444610A22826117
:1016B0001D21C161026244628262C162026340F222
:1016C000AA6242630E228263C363042202644264FC
:1016D0008364C264036542658365C36502664366CD
:1016E000826603F029F800B910BD00F0A5FAFBE707
:1016F0000811002400D4004030B5BBB004460021DE
:1017000035913691379138913991B82206A816F063
:1017100013FC23686F4A934208D06F4A93424BD020
:101720006E4A934200F08E803BB030BD4FF40042D1
:101730000023CDE906234FF08053219306A805F03E
:10174000A1FB40BB664A136801331360012B25D00F
:10175000644BD3F8E02042F00802C3F8E020D3F84D
:10176000E03003F008030193019B03233593022328
:1017700036930024379438940923399335A95A486D
:1017800003F0C6FC22460521132001F0C3FA132002
:1017900001F0F6FAC8E700F04FFAD3E7514BD3F85F
:1017A000EC2042F48072C3F8EC20D3F8EC3003F460
:1017B00080730093009BCBE74FF400420023CDE9F8
:1017C00006234FF08053219306A805F05BFB40BB36
:1017D000434A136801331360012B25D0414BD3F8E2
:1017E000E02042F00202C3F8E020D3F8E03003F03A
:1017F00002030393039B6023359302233693002453
:10180000379438940923399335A9384803F080FC7C
:1018100022460521142001F07DFA142001F0B0FACF
:1018200082E700F009FAD3E72E4BD3F8EC2042F41C
:101830008072C3F8EC20D3F8EC3003F48073029389
:10184000029BCBE74FF400420023CDE906234FF083
:101850008053219306A805F015FB48BB204A136866
:1018600001331360012B26D01E4BD3F8E02042F049
:101870000802C3F8E020D3F8E03003F00803059332
:10188000059B4FF44053359302233693002437943D
:1018900038940525399535A9134803F039FC2246BB
:1018A00029469F2001F036FA9F2001F069FA3BE7B4
:1018B00000F0C2F9D2E70B4BD3F8EC2042F480726F
:1018C000C3F8EC20D3F8EC3003F480730493049B4A
:1018D000CAE700BF00A0004000A4004000D40040C0
:1018E000C40F002400440258000C0258000402589F
:1018F00008B50DF0ABFB01226421104611F0D8FEB3
:101900004FF4FA700CF016FC00221146104611F04C
:10191000CFFE4FF4FA700CF00DFCECE7034B0360C4
:10192000034B0B6080231360704700BFB01300248B
:10193000AC110024034B0360034B0B604FF4807326
:1019400013607047381C00243818002410B588B084
:101950000DF1040C074C0FCCACE80F0094E8070025
:101960008CE80700002101A80AF042FD024B186034
:1019700008B010BD10040208A81100242DE9F04F92
:101980008DB000240794089409940A940B94A44BF6
:10199000D3F8E02042F01002C3F8E020D3F8E020B2
:1019A00002F010020192019AD3F8E02042F0040202
:1019B000C3F8E020D3F8E02002F004020292029A79
:1019C000D3F8E02042F08002C3F8E020D3F8E02012
:1019D00002F080020392039AD3F8E02042F0010261
:1019E000C3F8E020D3F8E02002F001020492049A48
:1019F000D3F8E02042F00202C3F8E020D3F8E02060
:101A000002F002020592059AD3F8E02042F00802A3
:101A1000C3F8E020D3F8E03003F008030693069BF8
:101A2000DFF804B201224EF22901584603F07AFC95
:101A3000DFF8F8A122464FF40041504603F072FC53
:101A4000DFF8EC8122464FF44061404603F06AFC27
:101A500001224FF48051404603F064FC22464FF4CB
:101A60008061704803F05EFC4FF4604307930127E8
:101A7000089709940A9407A9584603F049FB2923BB
:101A800007930897099403250A9507A9584603F078
:101A90003FFB02260796089609940A9509230B93A3
:101AA000DFF8909107A9484603F032FB082307931B
:101AB000089609940A9506230B9307A9484603F054
:101AC00027FB202307930895099407A9484603F0AC
:101AD0001FFB102307930895099407A9584603F0A4
:101AE00017FB0797089609940A954FF0040BCDF859
:101AF0002CB007A9404603F00BFBCDF81CB00896AC
:101B000009940A9509230B9307A9404603F000FBAB
:101B10004FF4A05307934FF488130893099407A92F
:101B2000504603F0F5FA4FF40063079308960994C2
:101B30000A950B230B9307A9504603F0E9FA4FF4DB
:101B4000004BCDF81CB0089709940A9407A9504699
:101B500003F0DEFA4FF440630793089709940A9460
:101B600007A9404603F0D4FA4FF48053079308972F
:101B700009970A9507A9404603F0CAFACDF81CB0A8
:101B8000089609940A940B9607A9404603F0C0FAF8
:101B90004FF480630793089709940A9407A9214892
:101BA00003F0B6FA4FF400630793089609940A9578
:101BB00009230B9307A91B4803F0AAFA4FF480737B
:101BC0000793089609940A940B9407A9484603F0D2
:101BD0009FFA4FF400730793089609940A95072318
:101BE0000B9307A9484603F093FACDF81CB008946C
:101BF000099407A9484603F08BFA802307930896B7
:101C000009940A9505230B9307A9064803F080FA67
:101C100021464FF0006001F061F80DB0BDE8F08F93
:101C200000440258000C02580008025800100258E4
:101C3000000402580000025872B6FEE700B59DB0DD
:101C40004C22002109A816F077F92022002101A8D2
:101C500016F072F9022004F0DBF900230093264B02
:101C60009A6922F440429A619B6903F440430093CD
:101C7000009B214B9B6913F4005FFAD02323099347
:101C80004FF480330A9301220C9240230D930F925C
:101C90000223129313931493282115911692042270
:101CA000179218930C23199300231A931B9309A8D6
:101CB00004F0E0F9D8B93F230193032102910023F6
:101CC0000393082304934023059306934FF4806203
:101CD0000792089301A804F00FFE50B94FF4802238
:101CE0000021084604F0BCFC1DB05DF804FBFFF7C2
:101CF000A3FFFFF7A1FF00BF0048025880B500F026
:101D000099FFFFF79BFFFFF739FEFFF7FFFBFFF798
:101D10005DFCFFF78DFCFFF7BDFC00F063FC00F0FD
:101D20005FF800F01BFC00F077FB00F007FD00F00F
:101D300087F800F093FC00F0C9FC0DF087F94FF430
:101D4000F07010F09FF90FF0FDFE1E480FF0CAFD75
:101D50000CF076FF0322002101200BF059F91A4EF6
:101D600030600322002101200BF052F9174D28604A
:101D70000322002101200BF04BF9154F386003209E
:101D80000BF0ADFD0146134C206038680BF0ADFD43
:101D9000216830680BF0A9FD216828680BF0A5FDCB
:101DA00001200BF087FA0C4B186015F085F911F043
:101DB0002FFD0A4806F02EFFFFF7C8FD0AF009FBC9
:101DC000FEE700BFC4210024C4200024CC2000244E
:101DD000C8200024D0200024C02000247023002428
:101DE00008B51548154B03604FF48003436000238A
:101DF00083600722C2604FF0007202614FF0807270
:101E000042614FF0806282614FF08042C2610362A2
:101E100043628362C36242638363C3630364436454
:101E20008364C36403654365836505F0CFFF00B930
:101E300008BDFFF701FFFBE7C42100240038004084
:101E400008B51648164B03604FF4800343604FF407
:101E5000003383600723C360002303614FF0807267
:101E600042614FF0806282614FF08052C261036232
:101E700043628362C3624FF0804242638363C36301
:101E8000036443648364C36403654365836505F049
:101E90009DFF00B908BDFFF7CFFEFBE74C220024F1
:101EA000001400582DE9F041BAB0044600213591E4
:101EB0003691379138913991B82206A816F03CF83E
:101EC0002368714A934206D0704A934200F0908092
:101ED0003AB0BDE8F0814FF480520023CDE90623EB
:101EE00006A804F0CFFF002879D1694BD3F8E82089
:101EF00042F48042C3F8E820D3F8E82002F480429C
:101F00000092009AD3F8E02042F00402C3F8E020E7
:101F1000D3F8E02002F004020192019AD3F8E02005
:101F200042F00202C3F8E020D3F8E03003F00203ED
:101F30000293029B062335934FF00208CDF8D88018
:101F400000253795032738970526399635A9514836
:101F500003F0DEF84FF400533593CDF8D880379571
:101F60003897399635A94C4803F0D2F84B484C4B7A
:101F70000360272343608560C5604FF4806303617D
:101F800045618561C5614FF440330362456201F0EC
:101F900019F938BB414BE3679C634248424B0360ED
:101FA00028234360402383600023C3604FF4806292
:101FB000026143618361C3614FF400320262436294
:101FC00001F000F988B9374BA3679C630022052113
:101FD000242000F09FFE242000F0D2FE78E7FFF7D7
:101FE0002BFE82E7FFF728FED4E7FFF725FEEAE79E
:101FF0004FF480420023CDE906234FF0A0433193F4
:1020000006A804F03FFF00283BD1214BD3F8F42071
:1020100042F02002C3F8F420D3F8F42002F02002AA
:102020000392039AD3F8E02042F00102C3F8E020C3
:10203000D3F8E02002F001020492049AD3F8E020E1
:1020400042F00202C3F8E020D3F8E03003F00203CC
:102050000593059B802335930226369600243794FA
:1020600038940825399535A9104803F051F835956D
:10207000369637943894399535A9074803F048F8CF
:1020800026E7FFF7D9FDC0E70038004000140058EC
:10209000004402580008025800040258D4200024CA
:1020A000100402404C210024280402400000025881
:1020B00000B583B00A4BD3F8F42042F00202C3F813
:1020C000F420D3F8F43003F002030193019B0022C3
:1020D0000F216FF0010000F01DFE03B05DF804FB5E
:1020E000004402580F2801D90120704710B58AB06A
:1020F000044600220146A12000F00CFEA12000F0C1
:102100003FFE174B1C60174BD3F8EC2042F0807257
:10211000C3F8EC20D3F8EC3003F080730093009BFD
:1021200001A902A804F078FD04F064FD43000E4804
:10213000A0FB03239B0C013B0C480D4A026040F2BC
:10214000E732C260436000230361836006F004FF4E
:1021500010B101200AB010BD044806F05BFDF9E79C
:102160000C0000240044025883DE1B43D4220024C8
:1021700000E00040FEE7FEE7FEE7FEE7FEE770470F
:1021800008B5024801F00CFE08BD00BFBC230024C6
:1021900008B5024801F004FE08BD00BF9C250024DC
:1021A00008B5024801F0FCFD08BD00BF342400243E
:1021B00008B5024802F01EFE08BD00BFC80F00248B
:1021C00008B5024802F016FE08BD00BF68100024E2
:1021D00008B5024806F072FD08BD00BF7023002458
:1021E00008B5024806F078FA08BD00BFC4210024F3
:1021F00008B5024807F054FA08BD00BF20270024A4
:1022000008B5024807F04CFA08BD00BFB427002407
:1022100008B5024807F044FA08BD00BF482800246A
:1022200008B5024801F0BCFD08BD00BFD420002461
:1022300008B5024801F0B4FD08BD00BF4C210024E0
:1022400008B5024801F0ACFD08BD00BFAC24002475
:1022500008B5024801F0A4FD08BD00BF24250024F4
:1022600008B5024801F09CFD08BD00BF14260024FB
:1022700008B5024803F08DFB08BD00BFE8520324F7
:1022800008B5024807F00CFA08BD00BF8C260024F0
:1022900008B5024802F0AEFD08BD00BF08110024D9
:1022A00008B5024806F00AFD08BD00BFD42200248C
:1022B0000120704708B515F05DFB162303604FF051
:1022C000FF3008BD08B54FF0FF31FFF7F3FFFEE721
:1022D00070B50C461646002506E0AFF30080214697
:1022E00001F8010B01350C46B542F6DB304670BDF6
:1022F00070B50C461646002504E014F8010BAFF348
:1023000000800135B542F8DB304670BD4FF0FF303C
:1023100070474FF400534B60002070470120704716
:102320000020704710B503460C4A0D490D4800685F
:1023300040B10C4800680344521A934206D8094A37
:10234000136010BD0748084C0460F2E715F012FB5B
:102350000C2303604FF0FF30F3E700BF00000524BB
:102360000010000020230024507D0324224AD2F8CC
:10237000883043F47003C2F88830204B1B6803F0A8
:102380000F03062B06D81D4A136823F00F0343F0F2
:10239000070313601A4B1A6842F001021A60002208
:1023A0001A611968174A0A401A60144B1B6813F027
:1023B000080F06D0114A136823F00F0343F00703F8
:1023C00013600F4B00229A61DA611A620E4999621A
:1023D0000E49D9620E4919635A639963DA63196425
:1023E0005A64196821F4802119601A66094B43F276
:1023F000D2021A60704700BF00ED00E000200052DA
:10240000004402587FEDF6EA000202020000FF01DC
:10241000800201010040005200B589B000230493FE
:102420000593069307930193029303931448154A67
:102430000260436083604BF67F32C2600361836158
:1024400006F08AFD90B94FF48053049304A90C4818
:1024500006F0D6FE68B900230193039301A908484A
:1024600007F036F840B909B05DF804FBFFF7E4FB6C
:10247000E9E7FFF7E1FBEEE7FFF7DEFBF3E700BF7D
:10248000702300240008004002680A4B9A4200D0E2
:10249000704782B0084BD3F8E82042F00202C3F83C
:1024A000E820D3F8E83003F002030193019B02B067
:1024B000704700BF000400400044025802680F4B00
:1024C0009A4200D0704700B583B00D4BD3F8E82096
:1024D00042F00402C3F8E820D3F8E83003F0040324
:1024E0000193019B002205211E2000F013FC1E20F9
:1024F00000F046FC03B05DF804FB00BF000800409C
:102500000044025800B587B000230193029303935F
:102510000493059302680E4B9A4202D007B05DF80F
:1025200004FB0C4BD3F8E02042F00202C3F8E02099
:10253000D3F8E03003F002030093009B02230193E1
:102540000293059301A9044802F0E2FDE6E700BF0B
:1025500000040040004402580004025800B58BB04B
:102560000023079308930993009301930293039325
:102570000493059306931948194A02601722426092
:10258000836042F20F72C26003618023836106F0B0
:1025900013FDC8B900230793099307A90F4806F054
:1025A00097FFA0B960230093002301930293049343
:1025B0000C226946094806F079FD58B90748FFF72B
:1025C000A1FF0BB05DF804FBFFF736FBE2E7FFF776
:1025D00033FBE7E7FFF730FBF0E700BF24230024DD
:1025E0000004004008B51A481A4B03601A4B4360B8
:1025F0004FF4805383604FF40053C3604FF4806303
:1026000003610423436100238361C3610362436266
:10261000836207F004FF70B900210D4808F016F836
:1026200060B900210A4808F036F850B9084807F0A8
:10263000EEFF48B908BDFFF7FFFAEDE7FFF7FCFA38
:10264000EFE7FFF7F9FAF1E7FFF7F6FAF2E700BF75
:102650004828002400500040A086010008B5184812
:10266000184B0360184B436000218160C160016119
:102670000C2343618161C1610162416281620B4649
:102680000A4607F07DFF70B900210D4807F0DEFF14
:1026900060B900210A4807F0FEFF50B9084807F06A
:1026A000B6FF48B908BDFFF7C7FAEDE7FFF7C4FA70
:1026B000EFE7FFF7C1FAF1E7FFF7BEFAF2E700BF75
:1026C000202700240044004000093D0008B51848B8
:1026D000184B0360184B436000218160C1600161A9
:1026E0000C2343618161C1610162416281620B46D9
:1026F0000A4607F045FF70B900210D4807F0A6FF14
:1027000060B900210A4807F0C6FF50B9084807F031
:102710007EFF48B908BDFFF78FFAEDE7FFF78CFAA7
:10272000EFE7FFF789FAF1E7FFF786FAF2E700BF74
:10273000B42700240048004000093D0008B51748B0
:10274000174B03604FF4E133436000238360C360A1
:1027500003610C2242618361C3610362436283624D
:1027600007F05DFE70B900210C4807F06FFF60B9FB
:1027700000210A4807F08FFF50B9084807F047FFCB
:1027800048B908BDFFF758FAEDE7FFF755FAEFE74C
:10279000FFF752FAF1E7FFF74FFAF2E78C26002431
:1027A000001C01402DE9F041BEB0044600213991E2
:1027B0003A913B913C913D91B8220AA815F0BCFB9F
:1027C00023687A4A93420DD0794A93427BD0794A62
:1027D000934200F00581784A934200F08B813EB02D
:1027E000BDE8F08102220023CDE90A230AA804F003
:1027F00049FB002861D1714BD3F8E82042F48012E4
:10280000C3F8E820D3F8E82002F480120092009A7E
:10281000D3F8E02042F00402C3F8E020D3F8E0202F
:1028200002F004020192019AD3F8E02042F008027B
:10283000C3F8E020D3F8E03003F008030293029BD2
:102840004FF4805339934FF00208CDF8E88000250B
:102850003B9503273C9708263D9639A9584802F036
:1028600057FC04233993CDF8E8803B953C973D967F
:1028700039A9544802F04CFC5348544B036041239F
:1028800043608560C5604FF4806303614561856185
:10289000C5614FF440330362456200F093FC78B9A0
:1028A000494BC4F880309C6300220521352000F09C
:1028B00031FA352000F064FA91E7FFF7BDF99AE7A5
:1028C000FFF7BAF9ECE702220023CDE90A230AA8B0
:1028D00004F0D8FA00285FD1384BD3F8E82042F44E
:1028E0000032C3F8E820D3F8E82002F40032039263
:1028F000039AD3F8E02042F00802C3F8E020D3F8AE
:10290000E03003F008030493049B702339930223FF
:102910003A9300253B953C9507233D9339A92948D7
:1029200002F0F6FB2A482B4B03602B2343608560A3
:10293000C5604FF48063036145618561C5614FF4F3
:1029400000330362456200F03DFC40BB204BC4F8FD
:1029500080309C632048214B03602C23436040233C
:1029600083600023C3604FF480620261436183612E
:10297000C3614FF400320262436200F023FC88B965
:10298000154BE3679C6300220521262000F0C2F965
:10299000262000F0F5F922E7FFF74EF99CE7FFF754
:1029A0004BF9D3E7FFF748F9EAE700BF00500040D2
:1029B0000044004000480040001C01400044025810
:1029C00000080258000C0258BC23002440000240BA
:1029D000AC24002440040240242500245804024072
:1029E00002220023CDE90A230AA804F04BFA0028AA
:1029F00077D1714BD3F8E82042F48022C3F8E82065
:102A0000D3F8E82002F480220592059AD3F8E0205A
:102A100042F00202C3F8E020D3F8E02002F0020204
:102A20000692069AD3F8E02042F00802C3F8E020AC
:102A3000D3F8E03003F008030793079B4FF480437B
:102A4000399302273A9700253B953C9507263D96FA
:102A500039A95A4802F05CFB4FF4407339933A9716
:102A60003B953C953D9639A9554802F051FB554898
:102A7000554B03602D2343608560C5604FF4806330
:102A8000036145618561C5614FF4003303624562AE
:102A900000F098FB40BB4B4BC4F880309C634B4824
:102AA0004B4B03602E234360402383600023C360AD
:102AB0004FF48062026143618361C3614FF400326D
:102AC0000262436200F07EFB88B9404BE3679C637F
:102AD00000220521272000F01DF9272000F050F9E1
:102AE0007DE6FFF7A9F884E7FFF7A6F8D3E7FFF73D
:102AF000A3F8EAE701220023CDE90A230AA804F09B
:102B0000C1F9002851D12C4BD3F8F02042F08002BB
:102B1000C3F8F020D3F8F02002F080020892089A5F
:102B2000D3F8E02042F01002C3F8E020D3F8E03000
:102B300003F010030993099B0423399302273A9762
:102B400000253B953C953D93224E39A9304602F035
:102B5000DFFA082339933A973B953C950B233D9335
:102B600039A9304602F0D4FA1B481C4B0360762387
:102B700043608560C5604FF4806303614561856192
:102B8000C5614FF400330362456200F01BFB78B966
:102B9000114BC4F880309C63002205219C2000F07A
:102BA000B9F89C2000F0ECF819E6FFF745F8AAE721
:102BB000FFF742F8ECE700BF004402580004025857
:102BC000000C02589C2500247000024014260024AA
:102BD0008804024000100258342400248800024077
:102BE000DFF834D0FFF7C2FB0C480D490D4A002333
:102BF00002E0D458C4500433C4188C42F9D30A4AB2
:102C00000A4C002301E013600432A242FBD314F00B
:102C1000B7FEFFF773F8704700000524000000249A
:102C2000A80F0024FC240208A80F00244C7D0324D4
:102C3000FEE7000010B5032000F05AF803F062FD33
:102C40000F498B69C3F303230E4AD35C03F01F03C0
:102C5000D8408B6903F00F03D35C03F01F0320FA05
:102C600003F3094A1360094B18600F20FFF73AFA83
:102C700010B10124204610BD0446FFF719FAF9E708
:102C8000004402587C0502080400002400000024CF
:102C9000034B1B78034A11680B441360704700BF55
:102CA00008000024DC280024014B1868704700BF8E
:102CB000DC28002438B50446FFF7F6FF0546B4F1DA
:102CC000FF3F02D0044B1B781C44FFF7EDFF401B75
:102CD000A042FAD338BD00BF08000024034A53685D
:102CE00023EA00030B435360704700BF0004005801
:102CF0000649CB6823F4E0631B041B0C000200F4BC
:102D0000E0600343024A1A43CA60704700ED00E0E6
:102D10000000FA0500B5174BDB68C3F30223C3F1CB
:102D2000070CBCF1040F28BF4FF0040C03F1040E94
:102D3000BEF1060F14D9033B4FF0FF3E0EFA0CFC18
:102D400021EA0C0199400EFA03F322EA0303194326
:102D5000002807DB0901C9B2074B19545DF804FBD1
:102D60000023E9E700F00F000901C9B2034B195431
:102D7000F4E700BF00ED00E000E400E014ED00E047
:102D8000002807DB00F01F02400901239340024A9C
:102D900042F82030704700BF00E100E0F0B4876DDA
:102DA0000468664E664DAC4218BFB44242D0183536
:102DB000AC423FD01835AC423CD01835AC4239D08B
:102DC0001835AC4236D01835AC4233D01835AC4249
:102DD00030D005F55675AC422CD01835AC4229D010
:102DE0001835AC4226D01835AC4223D01835AC4249
:102DF00020D01835AC421DD01835AC421AD0183549
:102E0000AC4217D04F4DAC4214D01435AC4211D067
:102E10001435AC420ED01435AC420BD01435AC4254
:102E200008D01435AC4205D01435AC4202D014356C
:102E3000AC4207D1446E856E6560C46E14B1046FF8
:102E4000456F656004683D4E3D4DAC4218BFB442CD
:102E500052D01835AC424FD01835AC424CD0183552
:102E6000AC4249D01835AC4246D01835AC4243D0BC
:102E70001835AC4240D005F55675AC423CD01835FB
:102E8000AC4239D01835AC4236D01835AC4233D0CC
:102E90001835AC4230D01835AC422DD01835AC4284
:102EA0002AD01835AC4227D0264E274DAC4218BF49
:102EB000B44211D0254DAC420ED01435AC420BD0EB
:102EC0001435AC4208D01435AC4205D01435AC42B0
:102ED00002D01435AC4224D1C46D04F01F05012486
:102EE000AC407C60046863608368402B20D003683A
:102EF00099600368DA6014E0C46D04F01F0C3F248D
:102F000004FA0CF4BC6005682C6824F480242C605E
:102F1000046863608368402B05D003689960036888
:102F2000DA60F0BC704703689A600368D960F8E71C
:102F300003689A600368D960F3E700BF100002409D
:102F400028000240085402581C54025830540258B9
:102F500003682749274A934218BF8B422FD0183263
:102F600093422CD01832934229D01832934226D063
:102F70001832934223D01832934220D01832934211
:102F80001DD002F55672934219D01832934216D0D2
:102F90001832934213D01832934210D01832934211
:102FA0000DD0183293420AD01832934207D018320B
:102FB000934204D023F0FF038365806D704710B403
:102FC000D9B210390C4AA2FB0142C2F302120B4CD7
:102FD000A25CC2655F2907D9094A1A40043282659A
:102FE000806D5DF8044B7047054A1A408265F7E72B
:102FF0001000024028000240ABAAAAAA8C050208D1
:1030000000FCFFFF83699BB9836A012B0AD0022B66
:1030100002D00BB100207047C36A13F0807F2AD121
:1030200000207047C36AB3F1C07F26D000207047EC
:10303000B3F5005F0AD0836A022B26D9032B26D171
:10304000C36A13F0807F24D100207047836A032B6A
:1030500003D8DFE803F01404140A00207047C36AA1
:1030600013F0807F0DD100207047C36AB3F1C07F99
:1030700009D00020704701207047012070470120CF
:1030800070470120704701207047012070470020E1
:10309000704701207047000003682249224A93428A
:1030A00018BF8B4228D01432934225D01432934259
:1030B00022D0143293421FD0143293421CD01432C7
:1030C000934219D01432934216D0DAB2103A17490B
:1030D000A1FB0212120916491944A8291FD9154B40
:1030E00013449B000366144B436602F01F02012346
:1030F00003FA02F282667047DBB2083B0F4AA2FB7A
:1031000003230F4A02EB1312920002660D4A426635
:10311000C3F30413012202FA03F3836670470832F3
:10312000DDE700BF085402581C540258ABAAAAAAF3
:10313000F0FBFDBF0082001080080240CDCCCCCC5B
:10314000009600168058025801794A1E072A2CD88A
:1031500030B40368154D164CA34218BFAB4218D0CB
:103160001434A34215D01434A34212D01434A34211
:103170000FD01434A3420CD01434A34209D0143419
:10318000A34206D00B4B0B449B00C3660A4B03675C
:1031900005E00A4B0B449B00C366094B0367012300
:1031A00003FA02F2426730BC704770470854025875
:1031B0001C5402583F820010400902403F960016FE
:1031C0004059025870B50446FFF76EFD002C00F020
:1031D000B381054623685349534A934218BF8B4233
:1031E0000CBF0122002250D030318B424DD018311B
:1031F0008B424AD018318B4247D018318B4244D091
:1032000018318B4241D018318B423ED001F55671B6
:103210008B423AD018318B4237D018318B4234D0A0
:1032200018318B4231D018318B422ED018318B425D
:103230002BD018318B4228D018318B4225D03B49F6
:103240003B4A934218BF8B4200F02E81394A934289
:1032500000F02A811432934200F026811432934206
:1032600000F022811432934200F01E811432934206
:1032700000F01A811432934200F0168140236365F6
:10328000032384F8353001204AE0022184F8351008
:10329000002184F834107ABB274A93422CD018328C
:1032A000934229D01832934226D01832934223D029
:1032B0001832934220D0183293421DD002F5567234
:1032C000934219D01832934216D01832934213D039
:1032D0001832934210D0183293420DD018329342D4
:1032E0000AD01832934207D01832934204D01A6899
:1032F00022F001021A6003E01A6822F001021A604B
:1033000023681A6812F0010F18D0FFF7CDFC431B99
:10331000052BF5D920236365032384F8353001207C
:1033200070BD00BF1000024028000240085402583F
:103330001C54025830540258400002401A687F481A
:103340001040A168E2680A4321690A4361690A439F
:10335000A1690A43E1690A43216A0A430243616A97
:10336000042900F096806168A1F12905A1F13F00D0
:10337000032888BF052D0AD9A1F14700012806D9E5
:10338000A1F14F00032802D97439032901D842F46E
:1033900080121A602668756925F00705636A1D4367
:1033A000042B08D1A36A1D43E36A23B12046FFF72B
:1033B00029FE002872D175612046FFF7C9FDE36D33
:1033C00003F01F023F239340836023685C495D4AFA
:1033D000934218BF8B4242D0183293423FD01832EA
:1033E00093423CD01832934239D01832934236D0AF
:1033F0001832934233D01832934230D002F55672CD
:1034000093422CD01832934229D01832934226D0BE
:103410001832934223D01832934220D0183293426C
:103420001DD0183293421AD01832934217D0464A10
:10343000934214D01432934211D0143293420ED0DE
:10344000143293420BD01432934208D01432934278
:1034500005D01432934202D01432934213D1204645
:10346000FFF71AFEA368802B59D0236E22791A60C9
:10347000636EA26E5A606368013B072B52D900232A
:10348000E3662367636700206065012384F83530B5
:1034900046E7E16A206B01430A4364E74023636522
:1034A000012084F835003BE7022284F83520002211
:1034B00084F834201A6825491140A268402A2CD08B
:1034C000802A27D00022E06842EAD002206942EA3E
:1034D000D002606942EAD002A06942EAD002E06903
:1034E00042EAD002206A42EA10120A431A602268B5
:1034F000174B1344174AA2FB03231B099B00E365E8
:103500002046FFF725FDE26D02F01F0101228A40EF
:1035100042605AE74FF48042D5E71022D3E70023F8
:103520006360A2E72046FFF70FFEE36E00221A60F9
:10353000236F626F5A60A6E70120F1E63F8010FE1C
:103540001000024028000240085402580F00FEFFFD
:10355000F8ABFDA7CDCCCCCC002800F03E8170B5F7
:10356000044690F83400012800F03981012084F8E5
:10357000340094F83500C0B2012807D04FF400633E
:103580006365002384F83430012070BD022084F884
:103590003500002060652068924E934DA84218BF08
:1035A000B0422FD01835A8422CD01835A84229D0C7
:1035B0001835A84226D01835A84223D01835A8427D
:1035C00020D01835A8421DD005F55675A84219D04F
:1035D0001835A84216D01835A84213D01835A8427D
:1035E00010D01835A8420DD01835A8420AD0183589
:1035F000A84207D01835A84204D0056825F0010577
:10360000056003E0056825F0010505602046FFF729
:10361000C5FB23687349744A934218BF8B4238D064
:103620001832934235D01832934232D01832934236
:103630002FD0183293422CD01832934229D018320E
:10364000934226D002F55672934222D0183293420A
:103650001FD0183293421CD01832934219D018321E
:10366000934216D01832934213D01832934210D09E
:10367000183293420DD01A6822F00E0242F00A026C
:103680001A60236C93B12268136843F0040313603B
:103690000CE01A6822F01E0242F016021A60236C37
:1036A00023B12268136843F00803136023684D496F
:1036B0004D4A934218BF8B4242D0183293423FD0BA
:1036C000183293423CD01832934239D01832934288
:1036D00036D01832934233D01832934230D002F5AC
:1036E000567293422CD01832934229D0183293420A
:1036F00026D01832934223D01832934220D0183269
:1037000093421DD0183293421AD01832934217D0E8
:10371000364A934214D01432934211D01432934259
:103720000ED0143293420BD01432934208D014328C
:10373000934205D01432934202D0143293420ED1F8
:10374000236E1A6812F4803F03D01A6842F4807224
:103750001A60E36E1BB11A6842F480721A60236823
:103760002049214A934218BF8B4230D018329342ED
:103770002DD0183293422AD01832934227D01832D3
:10378000934224D01832934221D0183293421ED053
:1037900002F5567293421AD01832934217D018325B
:1037A000934214D01832934211D0183293420ED063
:1037B000183293420BD01832934208D018329342F9
:1037C00005D01A6842F001021A600020DDE61A688E
:1037D00042F001021A600020D7E601207047022063
:1037E000D3E600BF100002402800024008540258EF
:1037F00070B50446FFF758FA002C00F09181054699
:1038000094F83530DBB2022B06D0802363650023A9
:1038100084F83430012070BD23688C498C4A93426F
:1038200018BF8B4230D0183293422DD018329342B9
:103830002AD01832934227D01832934224D018321B
:10384000934221D0183293421ED002F55672934211
:103850001AD01832934217D01832934214D018322B
:10386000934211D0183293420ED0183293420BD0AB
:103870001832934208D01832934205D01A6822F0C9
:103880000E021A60266809E01A6822F01E021A6009
:103890002268536923F080035361266823686B49CB
:1038A0006B4A934218BF8B4242D0183293423FD0AA
:1038B000183293423CD01832934239D01832934296
:1038C00036D01832934233D01832934230D002F5BA
:1038D000567293422CD01832934229D01832934218
:1038E00026D01832934223D01832934220D0183277
:1038F00093421DD0183293421AD01832934217D0F7
:10390000544A934214D01432934211D01432934249
:103910000ED0143293420BD01432934208D014329A
:10392000934205D01432934202D01432934204D110
:10393000226E136823F48073136023684349444A5A
:10394000934218BF8B422FD0183293422CD018329A
:10395000934229D01832934226D01832934223D072
:103960001832934220D0183293421DD002F556727D
:10397000934219D01832934216D01832934213D082
:103980001832934210D0183293420DD0183293421D
:103990000AD01832934207D01832934204D01A68E2
:1039A00022F001021A6003E01A6822F001021A6094
:1039B000336813F0010F0ED0FFF776F9431B052B88
:1039C000F6D920236365032384F83530002384F877
:1039D000343001201FE723681C491D4A934218BF59
:1039E0008B4239D01832934236D01832934233D0BA
:1039F0001832934230D0183293422DD0183293426D
:103A00002AD01832934227D002F55672934223D01F
:103A10001832934220D0183293421DD0183293426C
:103A20001AD01832934217D01832934214D0183259
:103A3000934211D0183293420ED0A16DE36D03F082
:103A40001F02012393404B600DE000BF10000240B5
:103A50002800024008540258A16DE36D03F01F02D4
:103A60003F2393408B6023682E492F4A934218BF0F
:103A70008B4242D0183293423FD0183293423CD00E
:103A80001832934239D01832934236D018329342CA
:103A900033D01832934230D002F5567293422CD074
:103AA0001832934229D01832934226D018329342CA
:103AB00023D01832934220D0183293421DD01832AE
:103AC00093421AD01832934217D0184A934214D016
:103AD0001432934211D0143293420ED014329342D6
:103AE0000BD01432934208D01432934205D01432D2
:103AF000934202D0143293420BD1636EA26E5A608D
:103B0000E36E33B11A6822F480721A60236F626F19
:103B10005A60012384F83530002084F834007AE6B6
:103B2000012078E6100002402800024008540258A4
:103B3000002800F0298108B5024690F83530DBB244
:103B4000022B03D080234365012008BD0368904801
:103B500090498B4218BF83420CBF0121002166D0DF
:103B60003030834263D01830834260D018308342B3
:103B70005DD0183083425AD01830834257D0183065
:103B8000834254D000F55670834250D0183083429F
:103B90004DD0183083424AD01830834247D0183075
:103BA000834244D01830834241D0183083423ED003
:103BB000183083423BD0196821F00E011960136858
:103BC000A0F5956073498B4218BF83426AD0724951
:103BD0008B4267D018318B4264D018318B4261D050
:103BE00018318B425ED018318B425BD018318B423A
:103BF00058D001F556718B4254D018318B4251D0B8
:103C000018318B424ED018318B424BD018318B4239
:103C100048D018318B4245D018318B4242D01831F0
:103C20008B423FD0196821F0010119603EE0042069
:103C300082F8350081BB584A93422DD01832934206
:103C40002AD01832934227D01832934224D0183207
:103C5000934221D0183293421ED002F556729342FD
:103C60001AD01832934217D01832934214D0183217
:103C7000934211D0183293420ED0183293420BD097
:103C80001832934208D01832934205D01A6822F0B5
:103C900001021A60002058E71A6822F001021A6037
:103CA000002052E7196821F00101196013683848B3
:103CB00038498B4218BF834242D018318B423FD0E3
:103CC00018318B423CD018318B4239D018318B429D
:103CD00036D018318B4233D018318B4230D001F5B9
:103CE00056718B422CD018318B4229D018318B421F
:103CF00026D018318B4223D018318B4220D0183176
:103D00008B421DD018318B421AD018318B4217D0FC
:103D100022498B4214D014318B4211D014318B4282
:103D20000ED014318B420BD014318B4208D0143199
:103D30008B4205D014318B4202D014318B4217D103
:103D4000116E0B6823F480730B60906DD36D03F0DC
:103D50001F0101238B404360536E916E5960D36EF7
:103D600033B1196821F480711960136F516F596074
:103D7000012382F83530002382F83430136D2BB1E3
:103D8000104698470020E0E6012070470020DCE65E
:103D9000100002402800024040000240085402582F
:103DA000F0B583B00446002301937D4B1D687D4B25
:103DB000A3FB0535AD0A876D3E68D7F800C00368E0
:103DC00079497A48834218BF8B420CBF01200020FA
:103DD00061D0774A93425ED0183293425BD018325A
:103DE000934258D01832934255D01832934252D051
:103DF000183293424FD002F5567293424BD018328C
:103E0000934248D01832934245D01832934242D060
:103E1000183293423FD0183293423CD0183293422A
:103E200039D01832934236D06249634A934218BF60
:103E30008B4212D0614A93420FD0143293420CD07D
:103E40001432934209D01432934206D01432934272
:103E500003D01432934240F061821A68E16D01F0A0
:103E60001F010420884010EA0C0F00F0A78212F016
:103E7000040F00F0A382786012F4004F00F05A8221
:103E800012F4803F40F05082A36C002B00F0468279
:103E90002046984742E2E26D02F01F0108228A4064
:103EA000324241D070BB424A93422BD018329342E7
:103EB00028D01832934225D01832934222D018329B
:103EC00093421FD0183293421CD002F5567293428F
:103ED00018D01832934215D01832934212D01832AB
:103EE00093420FD0183293420CD01832934209D02B
:103EF0001832934206D01832934203D01A68C2F3A4
:103F0000C00202E01A68C2F380026AB11A6822F0A5
:103F100004021A60E36D03F01F0208239340BB60A4
:103F2000636D43F001036365E26D02F01F0226FA40
:103F300002F313F0010F47D023681B481B498B4243
:103F400018BF83423CD018318B4239D018318B4294
:103F500036D018318B4233D018318B4230D01831E3
:103F60008B422DD018318B422AD001F556718B42ED
:103F700026D018318B4223D018318B4220D01831F3
:103F80008B421DD018318B421AD018318B4217D07A
:103F900018318B4214D018318B4211D01B6813E0BA
:103FA00000000024B5814E1B100002402800024092
:103FB00040000240085402581C5402583054025821
:103FC0005B6913F0800F3BD1E36D03F01F03042204
:103FD00002FA03F3334240D02268964896498A4257
:103FE00018BF824235D018318A4232D018318A4205
:103FF0002FD018318A422CD018318A4229D018315A
:104000008A4226D018318A4223D001F556718A425D
:104010001FD018318A421CD018318A4219D0183169
:104020008A4216D018318A4213D018318A4210D0F1
:1040300018318A420DD018318A420AD013680CE038
:10404000012303FA02F2BA60636D43F00203636571
:10405000BAE7126812F0020F3DD1E36D03F01F03BF
:10406000102202FA03F333425FD02268714872498A
:104070008A4218BF824234D018318A4231D0183176
:104080008A422ED018318A422BD018318A4228D049
:1040900018318A4225D018318A4222D001F5567152
:1040A0008A421ED018318A421BD018318A4218D059
:1040B00018318A4215D018318A4212D018318A42FA
:1040C0000FD018318A420CD018318A4209D01268B8
:1040D000C2F3800208E0BB60636D43F004036365D4
:1040E000BBE71268C2F3C002FAB1BB6023681A686A
:1040F00012F4802F0DD01B6813F4002F04D1236C11
:104100009BB12046984710E0A36C73B120469847B6
:104110000BE01A6812F4807F03D11A6822F00802BB
:104120001A60236C0BB120469847E36D03F01F0320
:10413000202202FA03F3334200F0928022683D48C5
:104140003D498A4218BF82422ED018318A422BD074
:1041500018318A4228D018318A4225D018318A4233
:1041600022D018318A421FD018318A421CD001F562
:1041700056718A4218D018318A4215D018318A42B5
:1041800012D018318A420FD018318A420CD018311F
:104190008A4209D018318A4206D018318A4203D0A7
:1041A0001268C2F3400202E01268C2F30012002A51
:1041B00056D0BB6094F83530DBB2042B0ED02368A8
:1041C0001A6812F4802F39D01B6813F4002F2CD1F9
:1041D000636C002B44D02046984741E02268136866
:1041E00023F0160313602268536923F080035361A0
:1041F000236CB3B12268136823F008031360E36DE6
:1042000003F01F023F239340BB60012384F8353045
:10421000002384F83430236D002B7FD0204698474C
:104220007CE0A36C002BE5D1E9E7E36BC3B120464A
:10423000984715E010000240280002401A6812F466
:10424000807F09D11A6822F010021A60012384F8D5
:104250003530002384F83430E36B0BB120469847A7
:10426000636D002B5AD0636D13F0010F52D00423FD
:1042700084F8353023689649964A934218BF8B429A
:104280002FD0183293422CD01832934229D01832B2
:10429000934226D01832934223D01832934220D032
:1042A000183293421DD002F55672934219D018323B
:1042B000934216D01832934213D01832934210D042
:1042C000183293420DD0183293420AD018329342DA
:1042D00007D01832934204D01A6822F001021A6003
:1042E00003E01A6822F001021A60019B0133019376
:1042F000AB4204D823681B6813F0010FF5D1236883
:104300001B6813F0010F0BD0032384F83530002312
:1043100084F83430E36C0BB12046984703B0F0BD0D
:10432000012384F83530F2E7236C002BF6D02046C9
:104330009847F3E712F0200F3AD123686449654AA1
:10434000934218BF8B422FD0183293422CD0183290
:10435000934229D01832934226D01832934223D068
:104360001832934220D0183293421DD002F5567273
:10437000934219D01832934216D01832934213D078
:104380001832934210D0183293420DD01832934213
:104390000AD01832934207D01832934204D01A68D8
:1043A00022F004021A6003E01A6822F008021A6080
:1043B000236C002BB2D020469847AFE702208840FC
:1043C00010EA0C0F60D012F0020F5DD0786012F48A
:1043D000004F0ED012F4803F05D1636C002B9DD0AE
:1043E000204698479AE7E36B002B97D020469847E2
:1043F00094E712F0200F40D123683549354A9342A3
:1044000018BF8B422FD0183293422CD018329342CF
:1044100029D01832934226D01832934223D0183232
:10442000934220D0183293421DD002F55672934227
:1044300019D01832934216D01832934213D0183242
:10444000934210D0183293420DD0183293420AD0C2
:104450001832934207D01832934204D01A6822F0DF
:104460000A021A6003E01A6822F014021A6001239B
:1044700084F83530002384F83430E36B002B3FF4AC
:104480004DAF2046984749E7082000FA01F111EAAC
:104490000C0F3FF443AF12F0080F3FF43FAF1A6820
:1044A00022F00E021A60E36D03F01F03012202FAEC
:1044B00003F37B60626584F83520002384F8343090
:1044C000E36C002B3FF42AAF2046984726E700BF55
:1044D000100002402800024030B4446B0368D3F857
:1044E00084106F4A114041EA8401C3F884100368C4
:1044F000D3F8841021F47F01856B41EA0541C3F8AC
:104500008410836B23440468D4F88810114041EA76
:104510008301C4F888100468D4F8881021F4FE01DF
:10452000C56B41EA0541C4F88810C16B03EB410338
:104530000468D4F8A010114041EA8301C4F8A01027
:104540000468D4F8A01021F4FE01056C41EA05418D
:10455000C4F8A010016C446C04FB01330468D4F867
:10456000B010114041EA8301C4F8B0100468D4F8D7
:10457000B01021F4FE01856C41EA0541C4F8B01089
:10458000816CC46C04FB01330468D4F8AC10114096
:1045900041EA8301C4F8AC10016D446D04FB0133A2
:1045A0000468D4F8F010114041EA8301C4F8F01017
:1045B0000468D4F8F01021F47C11856D41EA0541BE
:1045C000C4F8F010816D03EB41030468D4F8C01007
:1045D0000A4042EA8303C4F8C0300268D2F8C0300F
:1045E00023F47C13C16D43EA0143C2F8C030026872
:1045F000D2F8C03023F07C53016E43EA0163C2F865
:10460000C030436B274A1A449200C266836B02EBA8
:1046100083030367C16B03EBC1034367016C446C05
:1046200004FB01F103EB81038367816CC46C04FB21
:1046300001F103EB8103C367016D446D04FB01F1DC
:1046400003EB8103C0F88030816D03EBC103C0F838
:104650008430816EC46D01FB04FC03EB8C03C0F855
:104660008830046E04FB01F103EB8103C0F8903045
:104670000D498B420DD9D0F89C3043F02003C0F88F
:104680009C30032380F89830012007E0002342F893
:10469000043BD0F890309342F8D8002030BC7047EB
:1046A0000300FFFF002B0010FCD3004070B54C68E6
:1046B000FCB90D698C6825430C6845EA84450E6A8F
:1046C000CC6944EA06648E6934434E693443CE684B
:1046D00044EA0644D0F88460806E00FB03F306EBE6
:1046E000830E46F82350CEF804400EF1080E002049
:1046F00019E00C698D6825430C68254345F0804519
:10470000DDE702EB000C9CF803409CF802301B0430
:1047100043EA04639CF8014043EA0423145C234306
:104720004EF8043B0430CB68024CE35C8342E8D88B
:1047300070BD00BF9405020830B595B004464C2208
:10474000A04901A8FCF7AAFC002C00F038812368DE
:104750009D4A934220D094F898300BB32268936915
:1047600023F010039361FEF79FFA054623689A69C8
:1047700012F0080F1AD0FEF797FA431B0A2BF5D94F
:10478000D4F89C3043F00103C4F89C30032384F830
:104790009830012015B030BD03F580736360DAE70F
:1047A00084F899302046FCF7A7FFD7E79A6942F0D2
:1047B00001029A61FEF778FA054623689A6912F0B9
:1047C000010F0FD1FEF770FA401B0A28F5D9D4F873
:1047D0009C3043F00103C4F89C30032384F89830E4
:1047E0000120D7E79A6942F002029A61237C012BEB
:1047F00040D02268936943F040039361637C012BAE
:104800003ED02268936923F480439361A37C012BFB
:104810003CD02268936943F4805393612268936982
:1048200023F44073A1680B4393612268936923F0DA
:10483000A40393612268136923F010031361E368F2
:10484000012B29D0002B2CD0022B00F09B8022685A
:10485000936943F0800393612268136943F0100366
:104860001361E368032B1CD12268936943F0200392
:10487000936116E02268936923F040039361BDE7DA
:104880002268936943F480439361BFE72268936988
:1048900023F480539361C1E72268936943F00403D2
:1048A0009361A3695A1EE369013B1B0243EA426319
:1048B000226A013A13436269013A216843EA0243DA
:1048C000CB61A368B3F5407F62D0236E33B1226819
:1048D000D2F8C030616E0B43C2F8C030E36D226E77
:1048E000D3420DD02168D1F8C83023F00703A26E5F
:1048F00014A800EB820252F84C2C1343C1F8C830C4
:10490000236C6BB12168D1F8BC3023F00703626CD3
:1049100014A800EB820252F84C2C1343C1F8BC30AF
:10492000A36C73B12168D1F8BC3023F07003E26C42
:1049300014A800EB820252F84C2C43EA0213C1F88F
:10494000BC30236D73B12168D1F8BC3023F4E0632F
:10495000626D14A800EB820252F84C2C43EA022349
:10496000C1F8BC302268184B9A4222D00023C4F808
:104970009430C4F89C30012384F898302046FFF727
:10498000ABFD07E72268936943F02003936188E752
:10499000A36A013BE26A013A43EA0223226B013A2D
:1049A00043EA0213626A013A216843EA0243CB6098
:1049B0008BE76268936823F003039360D6E70120D6
:1049C000E8E600BF2C04020800A0004090F89830F0
:1049D000013BDBB2012B07D9D0F89C3043F0020336
:1049E000C0F89C3001207047CB680A68D2B9072B09
:1049F0000ED08A68DB0643EA82730A6943EA0243FF
:104A00004A691343C26E496842F82130002070475A
:104A10000A69CB691B0243EA02438A69134343F0E4
:104A20006053EFE710B40A6942EA4372072B0FD0D4
:104A30004B698C6843EA8473006F496800EBC10CD2
:104A400040F83120CCF8043000205DF8044B70476A
:104A50008B69F1E790F898C05FFA8CFCBCF1010F0C
:104A600007D0D0F89C3043F00403C0F89C300120FC
:104A70007047920042EA011242EA43020368009939
:104A80000A43C3F880200020704790F89830DBB2CA
:104A9000012B07D0D0F89C3043F00403C0F89C30C1
:104AA00001207047022380F898300268936923F050
:104AB000010393610023C0F89C301846704738B555
:104AC000044690F89830DBB2022B2BD10368D3F860
:104AD000C00010F07C5F0CD0D3F8C40010F4001FAD
:104AE0000FD0D4F89C3043F40073C4F89C300120FC
:104AF0001FE0D4F89C3043F02003C4F89C30012020
:104B000017E0D3F8C450C5F304452B462046FFF701
:104B1000CDFD22680123AB40C2F8D030C4F89430F8
:104B2000002006E0D0F89C3043F00803C0F89C3029
:104B3000012038BD90F898C05FFA8CFCBCF1020FE0
:104B400040F0E28070B540290CD041293DD0046D81
:104B50008C426DD8D0F89C3043F02003C0F89C30D4
:104B60000120C3E00468D4F8A05015F4FE0F0CD067
:104B7000D4F8A45015F07F0F0FD1D0F89C3043F437
:104B80008073C0F89C300120B0E0D0F89C3043F036
:104B90002003C0F89C300120A8E0D4F8A450C5F34D
:104BA000006615F0807F04D0D4F8A060F60F00D125
:104BB0000026D4F8A440C4F305242644456F446C71
:104BC00006FB04F405EB840C39E00468D4F8B0501B
:104BD00015F4FE0F0CD0D4F8B45015F07F0F0FD1A0
:104BE000D0F89C3043F48073C0F89C3001207DE005
:104BF000D0F89C3043F02003C0F89C30012075E0D1
:104C0000D4F8B450C5F3006615F0807F04D0D4F812
:104C1000B060F60F00D10026D4F8B440C4F30524E8
:104C20002644856FC46C06FB04F405EB840C06E097
:104C3000C56F446D01FB04F405EB840C0026DCF821
:104C4000004004F08044546074BBDCF80040C4F3BE
:104C50008A441460DCF8004004F000549460DCF8EE
:104C6000004004F000441461BCF80440D461BCF876
:104C7000064004F00F04D460DCF8044004F480140F
:104C80005461DCF8044004F4001494619CF807407B
:104C900004F07F041462DCF80440E40F54620CF169
:104CA000080E4FF0000C0BE0DCF8004024F06044EC
:104CB0001460CFE71EF80C4003F80C400CF1010C17
:104CC000D468154D2C5D6445F4D840290AD041299B
:104CD0000DD01F290FD80268012303FA01F1C2F891
:104CE000981002E00368C3F8A860002070BD036854
:104CF000C3F8B860F9E701F01F010268012303FA65
:104D000001F1C2F89C10F0E7D0F89C3043F00803A2
:104D1000C0F89C300120704794050208402905D056
:104D20000368D3F8B40000F07F0070470368D3F83D
:104D3000A40000F07F0070470368D3F8C40000F0BF
:104D40003F00704790F89830013BDBB2012B07D948
:104D5000D0F89C3043F00203C0F89C30012070472B
:104D600010B403689C6D0C4224D1DC6D44F0010446
:104D7000DC6511F4007F05D00468D4F8E0301343FB
:104D8000C4F8E03011F4806F05D00468D4F8E43042
:104D90001A43C4F8E4200068436D0C4A0A401343E8
:104DA00043650B4A536943EA9171516100205DF8F4
:104DB000044B70479C6D31EA040402D00324DC6587
:104DC000D7E7DC6D44F00204DC65D2E7FFFFCF3F9C
:104DD00000A80040704770477047704770477047A1
:104DE000704770477047704770477047704770470B
:104DF000704700002DE9F04F83B00446B04B1A69AC
:104E00005B699B0703EA8273019303681A6D02F4DE
:104E1000704A5A6D0AEA020A1A6D02F00F095A6DB9
:104E200009EA02091A6D02F0F0085A6D08EA020850
:104E30001E6D06F071565A6D16401F6D07F06077B3
:104E40005A6D17405D6DD3F850B015F4807F02D0D5
:104E50001BF4807F64D115F4806F02D01BF4806F47
:104E600067D1019B002B74D1BAF1000F7CD1B9F14D
:104E7000000F40F08580B8F1000F40F08D8015F4F0
:104E8000006F03D01BF4006F40F0928015F4007F98
:104E900003D01BF4007F40F0968015F4002F03D060
:104EA0001BF4002F40F09F8015F4803F03D01BF4CB
:104EB000803F40F0A38015F4802F03D01BF4802F97
:104EC00040F0A78015F4003F0FD01BF4003F0CD03A
:104ED00023684FF400321A65794B00221A61D4F826
:104EE0009C3043F08003C4F89C30002F40F09C803D
:104EF0004EB123681E65B20F714B1A61D4F89C3015
:104F00001E43C4F89C6022686E4B9A4200F0968063
:104F1000D4F89C30002B40F0F78003B0BDE8F08F50
:104F20004FF480721A65664B00221A61FFF75AFF30
:104F300091E72368D3F8DC10D3F8E4204FF48060C5
:104F400018655F4B0020186111402046FFF746FFAF
:104F500087E7236800221A6501998A0F584B1A6166
:104F60002046FFF737FF7FE72368C3F850A04FEADA
:104F70009A72534B1A6151462046FFF72CFF76E791
:104F80002368C3F850904FEA99724D4B1A61494615
:104F900020460CF033FE6EE72368C3F850804FEADA
:104FA0009872474B1A61414620460CF053FE66E763
:104FB00023684FF400621A65414B00221A612046B3
:104FC000FFF70AFF62E72368D3F8D810D3F8E02090
:104FD0004FF4007018653A4B0020186111402046CC
:104FE000FFF7FBFE59E723684FF400221A65344BA4
:104FF00000221A612046FFF7F2FE55E723684FF4BE
:1050000080321A652E4B00221A612046FFF7E8FE17
:1050100051E723684FF480221A65294B00221A6158
:105020002046FFF7DEFE4DE723681F65BA0F244BCD
:105030001A6139462046FFF7D7FE59E763689A6838
:1050400012F0030F3FF464AF196A01F00F015A6ABE
:10505000186A00F03008586A08EA00081F6A07F466
:10506000C077586A07401E6A06F4FC46586A064034
:105070001D6A05F4F025586A0540D3F82490D3F84A
:1050800020A0114020D1B8F1000F22D119F0400F1B
:1050900002D01AF0400F24D17FBB36B163681E6284
:1050A000D4F89C301E43C4F89C60002D3FF430AF10
:1050B00063681D62D4F89C301D43C4F89C5027E7F8
:1050C00000A8004000A0004019622046FFF78DFEB6
:1050D000D9E76368C3F8208041462046FFF786FE83
:1050E000D4E76368D96BDA6B4020186202F03F02A4
:1050F000090C2046FFF77BFECEE763681F62394646
:105100002046FFF775FEC8E72046FFF76CFE04E770
:10511000F0B583B000236BE085685E000324B440E3
:1051200025EA0405CC68B4402C438460446824EA32
:105130000C0C4C68C4F300149C4044EA0C0444601A
:1051400068E0DD08083550F8256003F007044FEAF1
:10515000840C0F2404FA0CF426EA040E0C6904FAF9
:105160000CF444EA0E0440F825406BE0092400E00A
:10517000002404FA0EF42C430CF1020C664D45F8A1
:105180002C404FF0B0442568D44325EA02064F680E
:1051900017F4801F01D042EA05064FF0B0452E609B
:1051A0006D6804EA05064F6817F4001F01D042EA53
:1051B00005064FF0B0456E60D5F8845004EA050648
:1051C0004F6817F4003F01D042EA05064FF0B045A2
:1051D000C5F88460D5F880502C404E6816F4803FA6
:1051E00001D042EA05044FF0B042C2F880400133DA
:1051F0000A6832FA03F400F08C804FF0010C0CFACC
:1052000003FC1CEA0202F2D04C6804F00304013CE7
:10521000012C81D94C6804F00304032C0CD0C46821
:105220005D004FF0030C0CFA05FC24EA0C0C8C68B2
:10523000AC4044EA0C04C4604C6804F00304022C43
:105240003FF47FAF04684FEA430E4FF0030C0CFAB3
:105250000EFC24EA0C0C4C6804F0030404FA0EF46F
:1052600044EA0C0404604C6814F4403FBFD02B4C5B
:10527000D4F8F45045F00205C4F8F450D4F8F440E2
:1052800004F002040194019C4FEA930C0CF1020516
:10529000214C54F8255003F003044FEA840E0F24E8
:1052A00004FA0EF425EA04051D4CA0423FF460AF59
:1052B00004F58064A0421ED004F58064A0421CD096
:1052C00004F58064A0421AD004F58064A04218D08E
:1052D00004F58064A04216D004F58064A04214D086
:1052E00004F58064A04212D004F50064A0423FF4AB
:1052F0003DAF0A243DE701243BE7022439E70324BC
:1053000037E7042435E7052433E7062431E707248B
:105310002FE703B0F0BD00BF00040058004402585E
:10532000000002580AB18161704709048161704729
:105330002DE9F04383B0D0F8008001EBC10300EB0E
:1053400083039A6A5B6A9A4254D807460C469B1AB2
:1053500001EBC10200EB8202D2699A4200D31A46E5
:1053600002F103094FEA990915E006F103094FEA32
:105370009909BB7904EBC40507EB8505296A0093FD
:10538000B3B2E2B2404605F00CFD2B6A33442B6207
:10539000AB6A3344AB6208EB441303F510639B69BB
:1053A0009BB24B4512D304EBC40207EB8202916A15
:1053B000536A99420AD24BB15B1A04EBC40207EB61
:1053C0008202D6699E42D0D31E46CEE704EBC400CB
:1053D00007EB80077A6ABB6A9A420FD804F00F0481
:1053E0000123A340D8F8344824EA0304C8F8344819
:1053F000002000E0012003B0BDE8F0830020FAE7C0
:1054000030B583B000287AD0044690F89534ABB11B
:10541000032384F89534206805F07AFA237C8DF80C
:105420000030231D0ECB206805F0A8F958B10223E7
:1054300084F895340125284603B030BD80F89434B3
:1054400009F00AFFE4E70021206805F0CBFE0246E0
:1054500008B9034617E0022384F895340125EAE7EA
:1054600003EBC30104EB8101012048750B75CB856B
:1054700000200876C861086203EBC30104EB8101D8
:1054800048620133DBB220799842E9D816E002EB9A
:10549000C20304EB8303002183F8551283F85422DE
:1054A00083F85812C3F85C12C3F8601202EBC2030F
:1054B00004EB8303C3F864120132D2B29042E6D8FF
:1054C000237C8DF80030231D0ECB206805F076FA82
:1054D000054658B900236374012384F89534237B6F
:1054E000012B08D0206805F03AFEA4E7022384F8D7
:1054F000953401259FE7204600F074FDF2E7012571
:1055000099E7036890F89424012A1AD010B504464C
:10551000012280F89424DA6812F0400F02D0427B16
:10552000012A09D0206805F0EDF9206805F009FE90
:10553000002084F8940410BD9A6B42F480329A6380
:10554000F0E702207047000070B504460D46006881
:10555000066C00EB411303F530639A68A1790129C9
:1055600011D038498E4256D03DB905EBC50304EB46
:105570008303D3F86432002B5ED0E9B2204609F0F1
:10558000ADFE002070BD12F0080F09D02E498E42EA
:10559000F7D912F4004FF4D04FF400429A60F0E7CC
:1055A00012F0200F02D020229A60EAE712F0280FB2
:1055B000E7D125498E4206D912F4004F03D04FF4AB
:1055C00000429A60DDE705EBC50204EB8202D2F8E7
:1055D00074121B69C3F31203CB1AC2F868327DB987
:1055E00005EBC50204EB8202D2F864226AB105EB36
:1055F000C50204EB8202D2F860120B44C2F860329A
:10560000E9B2204609F06AFEBBE704F29C420121A0
:1056100005F02AFEF4E712F4004F03D04FF40042E5
:105620009A60AEE712F0200F01D020229A60E9B212
:10563000204609F053FEA4E704F29C42002105F045
:1056400013FE9AE70A31544F0A30544F38B50446D6
:1056500003681D6C03EB4113D3F8081B0E4A9542F7
:1056600007D903F5306311F4004F02D04FF4004224
:105670009A60204609F02AFE074B9D4202D9A37981
:10568000012B01D0002038BD04F29C42012120688A
:1056900005F0EAFDF6E700BF0A30544F90F8943465
:1056A000012B0CD010B50446012380F894344174CA
:1056B000006805F036FD002084F8940410BD022037
:1056C000704738B505468C4611F0800F2BD101F09C
:1056D0000F0E0EEBCE04A40004F514740444211D37
:1056E0000EEBCE0E00EB8E0E00208EF855020CF065
:1056F0000F0C81F800C0C2F30A028A600B714A786D
:105700000AB1A1F81AC0022B1CD095F89434012BD1
:105710001BD0012385F89434286805F025FA002071
:1057200085F8940438BD01F00F0000EBC00189003A
:1057300010312944043100EBC00005EB8000012446
:105740004475D4E700234B71DFE70220EAE710B588
:1057500004460A4611F0800F20D101F00F0000EB43
:10576000C0039B0003F514732344191D00EBC00014
:1057700004EB8000002380F8553202F00F020A701B
:1057800094F89434012B18D0012384F894342068C1
:1057900005F038FA002084F8940410BD01F00F00E1
:1057A00000EBC0039B0010332344191D00EBC00025
:1057B00004EB800001234375DFE70220EDE710B51D
:1057C000144601F00F0C0CEBCC01890001F51471AB
:1057D000014404310CEBCC0E00EB8E0ECEF86022AF
:1057E000CEF864320023CEF868328EF855328EF847
:1057F00054C28279012A04D0006805F0E9FA002039
:1058000010BDCEF87042F7E701F00F0101EBC101C6
:1058100000EB8101D1F86802704710B5144601F021
:105820000F0C0CEBCC0189001031014404310CEB5E
:10583000CC0E00EB8E0ECEF82020CEF824300023C4
:10584000CEF8283001238EF815308EF814C08279F6
:105850009A4204D0006805F0BBFA002010BDCEF8D3
:105860003040F7E738B501F00F050279AA4238D386
:1058700004460B4611F0800F1FD101EBC1018900D6
:1058800001F514710144043103EBC30300EB8303FE
:10589000002283F8552201238B700D7094F8943404
:1058A000012B20D0012384F89434206805F0DEFB1E
:1058B00085B1002084F8940438BD05EBC50189004A
:1058C00010310144043105EBC50300EB83030122D1
:1058D0005A75E0E704F29C42A179206805F0C4FC07
:1058E000E7E70120E8E70220E6E701F00F0302798D
:1058F0009A4230D310B5044611F0800F1ED103EB4D
:10590000C301890001F514710144043103EBC302A2
:1059100000EB8202002082F8550200228A700B7090
:1059200094F89434012B18D0012384F8943420681F
:1059300005F0C9FB002084F8940410BD03EBC301FB
:10594000890010310144043103EBC30200EB8202F1
:1059500001205075E1E7012070470220EDE708B50E
:1059600011F0800F0CD101F00F0101EBC101890092
:1059700001F5147101440431006805F0B3F908BD64
:1059800001F00F0101EBC101890010310144043124
:10599000F2E72DE9F04F83B004460568284605F08C
:1059A0001DFC10B103B0BDE8F08F0646206805F07D
:1059B000E4FB0028F6D005F50067BB68C3F30D23B0
:1059C000C4F8D434206805F0D8FB10F0020F04D0DE
:1059D0002268536903F002035361206805F0CDFB90
:1059E00010F0100F14D02268936923F01003936114
:1059F000D5F8208008F00F09C8F34343022B69D083
:105A0000062B00F08D802268936943F010039361A8
:105A1000206805F0B2FB10F4002F40F0938020685E
:105A200005F0ABFB10F4802F40F0FC80206805F0FF
:105A3000A4FB0028C0F27D81206805F09EFB10F4D5
:105A4000006F09D0BB6813F0010F40F08A81226813
:105A5000536903F400635361206805F08EFB10F076
:105A6000006F15D02268536903F00063536194F806
:105A7000CC34002B40F07981012184F8CC142368C8
:105A80005B6DC3F38303C4F8D034204600F0BEFA44
:105A9000206805F072FB10F4805F40F06A81206896
:105AA00005F06BFB10F4005F40F0B681206805F054
:105AB00064FB10F0080F40F0C781206805F05DFB23
:105AC00010F0800F00F0DA81AB6923F08003AB6146
:105AD0000126C3E147F6F07318EA030F93D04FEAAB
:105AE000181B4FEAC903019309EBC90A04EB8A0AA0
:105AF000C8F30A12DAF86012284605F08DFACBF3E3
:105B00000A0BDAF860325B44CAF86032019B4B44FE
